{
  "contractName": "CryptoTwittos",
  "abi": [
    {
      "constant": true,
      "inputs": [],
      "name": "twittosCounter",
      "outputs": [
        {
          "name": "",
          "type": "uint256"
        }
      ],
      "payable": false,
      "stateMutability": "view",
      "type": "function"
    },
    {
      "constant": false,
      "inputs": [],
      "name": "unpause",
      "outputs": [],
      "payable": false,
      "stateMutability": "nonpayable",
      "type": "function"
    },
    {
      "constant": true,
      "inputs": [],
      "name": "paused",
      "outputs": [
        {
          "name": "",
          "type": "bool"
        }
      ],
      "payable": false,
      "stateMutability": "view",
      "type": "function"
    },
    {
      "constant": false,
      "inputs": [],
      "name": "destroy",
      "outputs": [],
      "payable": false,
      "stateMutability": "nonpayable",
      "type": "function"
    },
    {
      "constant": false,
      "inputs": [],
      "name": "pause",
      "outputs": [],
      "payable": false,
      "stateMutability": "nonpayable",
      "type": "function"
    },
    {
      "constant": true,
      "inputs": [],
      "name": "owner",
      "outputs": [
        {
          "name": "",
          "type": "address"
        }
      ],
      "payable": false,
      "stateMutability": "view",
      "type": "function"
    },
    {
      "constant": true,
      "inputs": [
        {
          "name": "",
          "type": "uint256"
        }
      ],
      "name": "twittos",
      "outputs": [
        {
          "name": "stealer",
          "type": "address"
        },
        {
          "name": "price",
          "type": "uint256"
        }
      ],
      "payable": false,
      "stateMutability": "view",
      "type": "function"
    },
    {
      "constant": true,
      "inputs": [
        {
          "name": "",
          "type": "uint256"
        }
      ],
      "name": "twittoIds",
      "outputs": [
        {
          "name": "",
          "type": "uint256"
        }
      ],
      "payable": false,
      "stateMutability": "view",
      "type": "function"
    },
    {
      "constant": false,
      "inputs": [
        {
          "name": "newOwner",
          "type": "address"
        }
      ],
      "name": "transferOwnership",
      "outputs": [],
      "payable": false,
      "stateMutability": "nonpayable",
      "type": "function"
    },
    {
      "constant": false,
      "inputs": [
        {
          "name": "_recipient",
          "type": "address"
        }
      ],
      "name": "destroyAndSend",
      "outputs": [],
      "payable": false,
      "stateMutability": "nonpayable",
      "type": "function"
    },
    {
      "anonymous": false,
      "inputs": [
        {
          "indexed": true,
          "name": "id",
          "type": "uint256"
        },
        {
          "indexed": true,
          "name": "owner",
          "type": "address"
        },
        {
          "indexed": false,
          "name": "price",
          "type": "uint256"
        },
        {
          "indexed": true,
          "name": "stealer",
          "type": "address"
        },
        {
          "indexed": false,
          "name": "newPrice",
          "type": "uint256"
        }
      ],
      "name": "stealEvent",
      "type": "event"
    },
    {
      "anonymous": false,
      "inputs": [],
      "name": "Pause",
      "type": "event"
    },
    {
      "anonymous": false,
      "inputs": [],
      "name": "Unpause",
      "type": "event"
    },
    {
      "anonymous": false,
      "inputs": [
        {
          "indexed": true,
          "name": "previousOwner",
          "type": "address"
        },
        {
          "indexed": true,
          "name": "newOwner",
          "type": "address"
        }
      ],
      "name": "OwnershipTransferred",
      "type": "event"
    },
    {
      "constant": true,
      "inputs": [
        {
          "name": "all",
          "type": "bool"
        }
      ],
      "name": "getTwittoIds",
      "outputs": [
        {
          "name": "",
          "type": "uint256[]"
        }
      ],
      "payable": false,
      "stateMutability": "view",
      "type": "function"
    },
    {
      "constant": false,
      "inputs": [
        {
          "name": "id",
          "type": "uint256"
        },
        {
          "name": "newPrice",
          "type": "uint256"
        }
      ],
      "name": "steal",
      "outputs": [],
      "payable": true,
      "stateMutability": "payable",
      "type": "function"
    },
    {
      "constant": false,
      "inputs": [],
      "name": "withdraw",
      "outputs": [],
      "payable": false,
      "stateMutability": "nonpayable",
      "type": "function"
    }
  ],
  "bytecode": "0x606060405260008060146101000a81548160ff021916908315150217905550336000806101000a81548173ffffffffffffffffffffffffffffffffffffffff021916908373ffffffffffffffffffffffffffffffffffffffff160217905550610e3d8061006d6000396000f3006060604052600436106100c5576000357c0100000000000000000000000000000000000000000000000000000000900463ffffffff1680631a5fc6e4146100ca5780633ccfd60b146100f35780633f4ba83a146101085780635c975abb1461011d57806383197ef01461014a5780638456cb591461015f5780638da5cb5b146101745780639ffba6ec146101c9578063a9f0c3c214610233578063c595ce941461026a578063d15e656c1461028b578063f2fde38b14610305578063f5074f411461033e575b600080fd5b34156100d557600080fd5b6100dd610377565b6040518082815260200191505060405180910390f35b34156100fe57600080fd5b61010661037d565b005b341561011357600080fd5b61011b610431565b005b341561012857600080fd5b6101306104ef565b604051808215151515815260200191505060405180910390f35b341561015557600080fd5b61015d610502565b005b341561016a57600080fd5b610172610597565b005b341561017f57600080fd5b610187610657565b604051808273ffffffffffffffffffffffffffffffffffffffff1673ffffffffffffffffffffffffffffffffffffffff16815260200191505060405180910390f35b34156101d457600080fd5b6101ea600480803590602001909190505061067c565b604051808373ffffffffffffffffffffffffffffffffffffffff1673ffffffffffffffffffffffffffffffffffffffff1681526020018281526020019250505060405180910390f35b341561023e57600080fd5b61025460048080359060200190919050506106c0565b6040518082815260200191505060405180910390f35b61028960048080359060200190919080359060200190919050506106e4565b005b341561029657600080fd5b6102ae6004808035151590602001909190505061095d565b6040518080602001828103825283818151815260200191508051906020019060200280838360005b838110156102f15780820151818401526020810190506102d6565b505050509050019250505060405180910390f35b341561031057600080fd5b61033c600480803573ffffffffffffffffffffffffffffffffffffffff16906020019091905050610b8d565b005b341561034957600080fd5b610375600480803573ffffffffffffffffffffffffffffffffffffffff16906020019091905050610ce2565b005b60035481565b6000809054906101000a900473ffffffffffffffffffffffffffffffffffffffff1673ffffffffffffffffffffffffffffffffffffffff163373ffffffffffffffffffffffffffffffffffffffff161415156103d857600080fd5b3373ffffffffffffffffffffffffffffffffffffffff166108fc3073ffffffffffffffffffffffffffffffffffffffff16319081150290604051600060405180830381858888f19350505050151561042f57600080fd5b565b6000809054906101000a900473ffffffffffffffffffffffffffffffffffffffff1673ffffffffffffffffffffffffffffffffffffffff163373ffffffffffffffffffffffffffffffffffffffff1614151561048c57600080fd5b600060149054906101000a900460ff1615156104a757600080fd5b60008060146101000a81548160ff0219169083151502179055507f7805862f689e2f13df9f062ff482ad3ad112aca9e0847911ed832e158c525b3360405160405180910390a1565b600060149054906101000a900460ff1681565b6000809054906101000a900473ffffffffffffffffffffffffffffffffffffffff1673ffffffffffffffffffffffffffffffffffffffff163373ffffffffffffffffffffffffffffffffffffffff1614151561055d57600080fd5b6000809054906101000a900473ffffffffffffffffffffffffffffffffffffffff1673ffffffffffffffffffffffffffffffffffffffff16ff5b6000809054906101000a900473ffffffffffffffffffffffffffffffffffffffff1673ffffffffffffffffffffffffffffffffffffffff163373ffffffffffffffffffffffffffffffffffffffff161415156105f257600080fd5b600060149054906101000a900460ff1615151561060e57600080fd5b6001600060146101000a81548160ff0219169083151502179055507f6985a02210a168e66602d3235cb6db0e70f92b3ba4d376a33c0f3d9434bff62560405160405180910390a1565b6000809054906101000a900473ffffffffffffffffffffffffffffffffffffffff1681565b60016020528060005260406000206000915090508060000160009054906101000a900473ffffffffffffffffffffffffffffffffffffffff16908060010154905082565b6002818154811015156106cf57fe5b90600052602060002090016000915090505481565b60008060149054906101000a900460ff1615151561070157600080fd5b6001600084815260200190815260200160002090508060000160009054906101000a900473ffffffffffffffffffffffffffffffffffffffff1673ffffffffffffffffffffffffffffffffffffffff163373ffffffffffffffffffffffffffffffffffffffff161415151561077557600080fd5b80600101543414151561078757600080fd5b80600101548211151561079957600080fd5b600034111561082d578060000160009054906101000a900473ffffffffffffffffffffffffffffffffffffffff1673ffffffffffffffffffffffffffffffffffffffff166108fc61080760646107f9606334610d5690919063ffffffff16565b610d9190919063ffffffff16565b9081150290604051600060405180830381858888f19350505050151561082c57600080fd5b5b600081600101541415610876576002805480600101828161084e9190610dac565b9160005260206000209001600085909190915055506003600081548092919060010191905055505b3373ffffffffffffffffffffffffffffffffffffffff168160000160009054906101000a900473ffffffffffffffffffffffffffffffffffffffff1673ffffffffffffffffffffffffffffffffffffffff16847f362bed796f54e9fc1dcf4b2e8c4fabe8d571561031ff7e8c132d478593865e8b846001015486604051808381526020018281526020019250505060405180910390a4338160000160006101000a81548173ffffffffffffffffffffffffffffffffffffffff021916908373ffffffffffffffffffffffffffffffffffffffff160217905550818160010181905550505050565b610965610dd8565b61096d610dd8565b600080610978610dd8565b60008060035414156109ab5760006040518059106109935750595b90808252806020026020018201604052509550610b83565b8615610a095760028054806020026020016040519081016040528092919081815260200182805480156109fd57602002820191906000526020600020905b8154815260200190600101908083116109e9575b50505050509550610b83565b600354604051805910610a195750595b9080825280602002602001820160405250945060009350600092505b600354831015610b10573373ffffffffffffffffffffffffffffffffffffffff1660016000600286815481101515610a6957fe5b906000526020600020900154815260200190815260200160002060000160009054906101000a900473ffffffffffffffffffffffffffffffffffffffff1673ffffffffffffffffffffffffffffffffffffffff161415610b0357600283815481101515610ad257fe5b9060005260206000209001548585815181101515610aec57fe5b906020019060200201818152505083806001019450505b8280600101935050610a35565b83604051805910610b1e5750595b90808252806020026020018201604052509150600090505b83811015610b7f578481815181101515610b4c57fe5b906020019060200201518282815181101515610b6457fe5b90602001906020020181815250508080600101915050610b36565b8195505b5050505050919050565b6000809054906101000a900473ffffffffffffffffffffffffffffffffffffffff1673ffffffffffffffffffffffffffffffffffffffff163373ffffffffffffffffffffffffffffffffffffffff16141515610be857600080fd5b600073ffffffffffffffffffffffffffffffffffffffff168173ffffffffffffffffffffffffffffffffffffffff1614151515610c2457600080fd5b8073ffffffffffffffffffffffffffffffffffffffff166000809054906101000a900473ffffffffffffffffffffffffffffffffffffffff1673ffffffffffffffffffffffffffffffffffffffff167f8be0079c531659141344cd1fd0a4f28419497f9722a3daafe3b4186f6b6457e060405160405180910390a3806000806101000a81548173ffffffffffffffffffffffffffffffffffffffff021916908373ffffffffffffffffffffffffffffffffffffffff16021790555050565b6000809054906101000a900473ffffffffffffffffffffffffffffffffffffffff1673ffffffffffffffffffffffffffffffffffffffff163373ffffffffffffffffffffffffffffffffffffffff16141515610d3d57600080fd5b8073ffffffffffffffffffffffffffffffffffffffff16ff5b6000806000841415610d6b5760009150610d8a565b8284029050828482811515610d7c57fe5b04141515610d8657fe5b8091505b5092915050565b6000808284811515610d9f57fe5b0490508091505092915050565b815481835581811511610dd357818360005260206000209182019101610dd29190610dec565b5b505050565b602060405190810160405280600081525090565b610e0e91905b80821115610e0a576000816000905550600101610df2565b5090565b905600a165627a7a723058207f8417f0b785831e26d3cc7327ca0c9ce95d524e59795c762bc8b81dd73259070029",
  "source": "pragma solidity ^0.4.19;\n\nimport 'zeppelin-solidity/contracts/ownership/Ownable.sol';\nimport 'zeppelin-solidity/contracts/lifecycle/Destructible.sol';\nimport 'zeppelin-solidity/contracts/lifecycle/Pausable.sol';\nimport 'zeppelin-solidity/contracts/math/SafeMath.sol';\n\ncontract CryptoTwittos is Ownable, Pausable, Destructible {\n  using SafeMath for uint;\n\n  // A Twitto is owned by a stealer and has a price\n  struct Twitto {\n    address stealer;\n    uint price;\n  }\n\n  // Look up Twitto by ids\n  mapping(uint => Twitto) public twittos;\n\n  // All Twitto ids and counter\n  uint[] public twittoIds;\n  uint public twittosCounter;\n\n\n  // Fire event when steal happens\n  event stealEvent(\n    uint indexed id,\n    address indexed owner,\n    uint price,\n    address indexed stealer,\n    uint newPrice\n  );\n\n\n  // Get twittoIds\n  function getTwittoIds(bool all) public view returns (uint[]) {\n    // Return empty array if counter is zero\n    if (twittosCounter == 0) return new uint[](0);\n\n    if (all) {\n      // Return all of them\n      return twittoIds;\n\n    } else {\n      // Create memory array to store filtered ids\n      uint[] memory filteredIds = new uint[](twittosCounter);\n      // Store number of belongings\n      uint twittosCount = 0;\n\n      for (uint i = 0; i < twittosCounter; i++) {\n        // Check if stealer is sender\n        if (twittos[twittoIds[i]].stealer == msg.sender) {\n          filteredIds[twittosCount] = twittoIds[i];\n          twittosCount++;\n        }\n      }\n\n      // Copy the filteredIds array into a smaller array\n      uint[] memory trophies = new uint[](twittosCount);\n      for (uint j = 0; j < twittosCount; j++) {\n        trophies[j] = filteredIds[j];\n      }\n      return trophies;\n    }\n  }\n\n  // Steal a Twitto by paying its price and setting a new one\n  function steal(uint id, uint256 newPrice) payable whenNotPaused public {\n\n    // look up the twitto and put on storage\n    Twitto storage _twitto = twittos[id];\n\n    // Prevent self stealing!\n    require(msg.sender != _twitto.stealer);\n\n    // Make sure the sender pays the right price\n    require(msg.value == _twitto.price);\n\n    // Make sure that the new price is higher than the old price\n    require(newPrice > _twitto.price);\n\n    // Transfer value\n    if (msg.value > 0) {\n      _twitto.stealer.transfer(msg.value.mul(99).div(100));\n    }\n\n    // Push new Twitto if not existing\n    if (_twitto.price == 0) {\n      twittoIds.push(id);\n      twittosCounter++;\n    }\n\n    // Trigger event\n    stealEvent(id, _twitto.stealer, _twitto.price, msg.sender, newPrice);\n\n    // Store new stealer\n    _twitto.stealer = msg.sender;\n\n    // Store new price\n    _twitto.price = newPrice;\n\n  }\n\n  function withdraw() public onlyOwner {\n\n    // Transfer balance to owner\n    msg.sender.transfer(address(this).balance);\n  }\n\n\n}\n",
  "sourcePath": "/Users/theo/Code/ethereum/cryptotwitties/contracts/CryptoTwittos.sol",
  "compiler": {
    "name": "solc",
    "version": "0.4.19+commit.c4cbbb05.Emscripten.clang"
  },
  "schemaVersion": "2.0.0",
  "updatedAt": "2018-03-20T16:31:03.301Z"
}