{
  "contractName": "CryptoTwittos",
  "abi": [
    {
      "constant": true,
      "inputs": [
        {
          "name": "",
          "type": "uint256"
        }
      ],
      "name": "twittos",
      "outputs": [
        {
          "name": "stealer",
          "type": "address"
        },
        {
          "name": "price",
          "type": "uint256"
        }
      ],
      "payable": false,
      "stateMutability": "view",
      "type": "function"
    },
    {
      "constant": false,
      "inputs": [
        {
          "name": "id",
          "type": "uint256"
        },
        {
          "name": "newPrice",
          "type": "uint256"
        }
      ],
      "name": "steal",
      "outputs": [],
      "payable": true,
      "stateMutability": "payable",
      "type": "function"
    }
  ],
  "bytecode": "0x6060604052341561000f57600080fd5b6102a48061001e6000396000f30060606040526004361061004c576000357c0100000000000000000000000000000000000000000000000000000000900463ffffffff1680639ffba6ec14610051578063c595ce94146100bb575b600080fd5b341561005c57600080fd5b61007260048080359060200190919050506100dc565b604051808373ffffffffffffffffffffffffffffffffffffffff1673ffffffffffffffffffffffffffffffffffffffff1681526020018281526020019250505060405180910390f35b6100da6004808035906020019091908035906020019091905050610120565b005b60006020528060005260406000206000915090508060000160009054906101000a900473ffffffffffffffffffffffffffffffffffffffff16908060010154905082565b600080600084815260200190815260200160002090508060000160009054906101000a900473ffffffffffffffffffffffffffffffffffffffff1673ffffffffffffffffffffffffffffffffffffffff163373ffffffffffffffffffffffffffffffffffffffff161415151561019557600080fd5b8060010154341415156101a757600080fd5b8060010154821115156101b957600080fd5b6000341115610227578060000160009054906101000a900473ffffffffffffffffffffffffffffffffffffffff1673ffffffffffffffffffffffffffffffffffffffff166108fc349081150290604051600060405180830381858888f19350505050151561022657600080fd5b5b338160000160006101000a81548173ffffffffffffffffffffffffffffffffffffffff021916908373ffffffffffffffffffffffffffffffffffffffff1602179055508181600101819055505050505600a165627a7a72305820adf14b3c69cedc54a0ab4909a8f51765d9b240a09f0d1a2b8455d983ceed957a0029",
  "source": "pragma solidity ^0.4.17;\n\n\ncontract CryptoTwittos {\n\n\n  // A Twitto is owned by a stealer and has a price\n  struct Twitto {\n    address stealer;\n    uint price;\n  }\n\n  // Look up Twitto by ids\n  mapping(uint => Twitto) public twittos;\n\n\n  // Steal a Twitto by paying its price and setting a new one\n  function steal(uint id, uint256 newPrice) payable public {\n\n    // look up the twitto and put on storage\n    Twitto storage _twitto = twittos[id];\n\n    // Prevent self stealing!\n    require(msg.sender != _twitto.stealer);\n\n    // Make sure the sender pays the right price\n    require(msg.value == _twitto.price);\n\n    // Make sure that the new price is higher than the old price\n    require(newPrice > _twitto.price);\n\n    // Transfer value\n    if (msg.value > 0) _twitto.stealer.transfer(msg.value);\n\n    // Store new stealer\n    _twitto.stealer = msg.sender;\n\n    // Store new price\n    _twitto.price = newPrice;\n\n  }\n\n\n}\n",
  "sourcePath": "/Users/theo/Code/ethereum/cryptotwitties/contracts/CryptoTwittos.sol",
  "compiler": {
    "name": "solc",
    "version": "0.4.19+commit.c4cbbb05.Emscripten.clang"
  },
  "schemaVersion": "2.0.0",
  "updatedAt": "2018-02-28T07:32:11.302Z"
}